:020000040800F2
:1000000068380020D90100080F1F0008B11C000843
:100010000D1F000827090008F72200080000000053
:10002000000000000000000000000000631F000846
:100030002909000800000000111F0008651F0008C2
:10004000F3010008F3010008F3010008F3010008C0
:10005000F3010008F3010008F3010008F3010008B0
:10006000F3010008F3010008F3010008F3010008A0
:10007000F3010008F3010008F3010008F301000890
:10008000F3010008F3010008F3010008F301000880
:10009000F3010008F3010008F3010008F301000870
:1000A000F3010008F3010008F3010008F301000860
:1000B000F3010008F3010008F3010008F301000850
:1000C000F3010008F3010008F3010008F301000840
:1000D000F3010008F3010008F3010008F301000830
:1000E000F3010008F3010008F3010008F301000820
:1000F000F3010008F3010008F3010008F301000810
:10010000F3010008F3010008F3010008F3010008FF
:10011000F301000839200008F3010008F30100088A
:10012000F3010008F3010008F3010008F3010008DF
:10013000F30100080000000000000000F3010008C7
:10014000F3010008F3010008F3010008F3010008BF
:10015000F3010008F3010008F3010008F3010008AF
:10016000F3010008F3010008F3010008F30100089F
:10017000F3010008F3010008F3010008000000008B
:1001800000000000F3010008000000000000000073
:10019000F30100080000000000000000F301000867
:1001A000000000000000000000000000F301000853
:1001B000F3010008F3010008F3010008F30100084F
:1001C000F3010008DFF80CD000F0C0F90048004748
:1001D000ED29000868380020064880470648004797
:1001E000FEE7FEE7FEE7FEE7FEE7FEE7FEE7FEE7E7
:1001F000FEE7FEE71D200008C50100082DE9F05FBD
:100200000546002092469B46884606468146402485
:100210001BE0284641464746224600F044F9534633
:100220005A46C01A914110D311461846224600F092
:100230002BF92D1A67EB01084F46224601200021B9
:1002400000F022F917EB00094E41201EA4F1010431
:10025000DFDC484631462A464346BDE8F09F40EA87
:1002600001039B0703D009E008C9121F08C0042A34
:10027000FAD203E011F8013B00F8013B521EF9D21B
:100280007047D2B201E000F8012B491EFBD2704743
:100290000022F6E710B513460A4604461946FFF752
:1002A000F0FF204610BD30B505462A460B4612F831
:1002B000010B13F8014B08B1A042F8D01CB1002883
:1002C00002D06D1CF1E7284630BD421C10F8011B1E
:1002D0000029FBD1801A70470FB400B58DB010A96A
:1002E00009900B9000914FF0FF300A9000200C9085
:1002F00005480690054807906A4609A80F9900F03E
:10030000F7F80DB05DF814FB0D0500082B0500088B
:100310002DE9FF5F1D464FF0FF3BD5E901469146B1
:100320005F464FF00008A9697F1C01988847296A39
:10033000824688470028F6D1BAF1FF3F0CD024F45A
:10034000C064002E19DD600614D5BAF12B0F09D058
:10035000BAF12D0F0ED103E0584604B0BDE8F09F6E
:1003600044F48064A9697F1C01988847761E824600
:10037000002E02DDBAF1300F03D0B9F1000F26D004
:1003800032E0A969761E44F400747F1C0198884706
:100390008246002E05DDBAF1780F06D0BAF1580F6B
:1003A00003D0B9F1000F10D01EE0B9F1000F02D058
:1003B000B9F1100F18D1A969761E24F400747F1CBE
:1003C000019888478246102002E0082000E00A20B9
:1003D000814609E008FB0908A969761E44F4007407
:1003E0007F1C019888478246002E05DD494650460D
:1003F00000F069F80028EDDAE96901988847A0055E
:1004000002D46FF00100A8E7E00725D1600613D5FC
:10041000600502D5C8F1000000E0404629680A1DC9
:100420002A600968220501D5087015E0220701D568
:10043000088011E008600FE02868011D296000684D
:10044000210502D580F8008006E0210702D5A0F83A
:10045000008001E0C0F8008038467EE730B50B46EA
:10046000014600202022012409E021FA02F59D42E4
:1004700005D303FA02F5491B04FA02F52844151EB8
:10048000A2F10102F1DC30BD202A04DB203A00FA9F
:1004900002F1002070479140C2F1200320FA03F3DB
:1004A000194390407047202A04DB203A21FA02F0D9
:1004B0000021704721FA02F3D040C2F1200291409E
:1004C0000843194670473A2800D2303820F02002FD
:1004D000412A01D3A2F13700884201D34FF0FF3007
:1004E0007047000002681144137801601846704795
:1004F000D160044951610449116200211161114622
:1005000000F03CB8E504000871050008426842B1FB
:10051000016811F8013B23B1521EC0E900121846D0
:1005200070470121C160881E704742685AB1C36894
:10053000016843B983688B4205D0491E521CC0E94B
:100540000012002070474FF0FF307047064C074DF7
:1005500006E0E06840F0010394E807009847103493
:10056000AC42F6D3FFF732FEF02C0008102D000845
:10057000C0B24FF4F05100F097B900002DE9F34FED
:100580008BB04FF0000801F10C000C464FF0010B4E
:1005900046460DF1080A01906269012101989047D1
:1005A000051E2DD0252D2CD0216A8847C0B1626947
:1005B000012101989047216A88470028F7D1411E00
:1005C00062690198904700E0761CA1690B98884702
:1005D000216A88470028F7D1E1690B988847DBE753
:1005E000A1690B9888470746A84201D1761CD3E73A
:1005F000E1690B9888477F1C02D1B8F1000F6FD0DA
:1006000046E1002762693D463946019890472A280D
:1006100004D162690121019890470125DFF8849295
:100620006269012101989047A0F130010A290AD29C
:100630004F45E5DC07EB870100EB4107303FDFD496
:1006400045F01005ECE7E90601D46FF000476C288F
:100650000AD04C2814D0682815D06A280DD07428E8
:100660001CD07A281AD01DE06269012101989047B8
:100670006C2802D045F0040514E045F002050DE0B9
:1006800045F020050AE06269012101989047682839
:1006900002D045F0080505E045F4006562690121D6
:1006A00001989047C4E9015765283DD019DC5828C6
:1006B0007AD00CDC452837D004DC252826D0412808
:1006C00031D131E046282FD047282CD12CE05B28AF
:1006D00077D0612828D063287CD0642823D15AE0C1
:1006E000D0E06F2848D008DC66281DD067281BD0D2
:1006F000692821D06E2816D127E0702845D07328AC
:1007000068D0752847D078280DD14DE0A1690B98A5
:100710008847054625283FF469AFE1690B9888476B
:100720006D1C3FF46AAFB3E023466A466FF00100E8
:100730000B99AFF300809EE045F040006060A80791
:1007400023464FF0000236D43EE0E8077FF447AF7F
:100750002068011D21600068290501D506701BE78E
:10076000290701D5068017E7A90703D5F117C0E9C6
:10077000006111E706600FE745F040006060A807E0
:1007800023464FF0080216D41EE040F60E0125EA7B
:100790000100606016E045F040006060A807234655
:1007A0004FF00A0207D40FE045F040006060A80750
:1007B00008D5234610226FF001000B99AFF300809B
:1007C00059E007E0234610226FF001000B99FFF774
:1007D0009FFD50E04FF000094F464B46632802D082
:1007E0005B2806D040E0E80601D40120A060012784
:1007F0003AE062690121019890475E2805D14FF0E7
:1008000001096269494601989047216939B9002177
:100810000A46534643F82120491C0829FADBB0B3A5
:10082000216969B9C11700EBD16253110AEB830149
:1008300022F01F02821A01200B68904003430B60D4
:1008400062690121019890475D28E8D1B9F1000F54
:1008500009D00020514651F82020D24341F82020F1
:10086000401C0828F7DB02AB224600976FF001001E
:100870000B99AFF3008000280CDA401C08D1BBF1C3
:10088000000F05D04FF0FF300DB0BDE8F08FFFE74F
:100890004046F9E7E90701D108F1010806444FF0A5
:1008A000000B79E6CCCCCC0C7F2801D9002208E0E3
:1008B000064A02EB5002C007127800D1120902F07A
:1008C0000F0201209040084070470000802B000874
:1008D00070B58C1810F8015B15F0070301D110F802
:1008E000013B2A1106D110F8012B03E010F8016B2F
:1008F00001F8016B5B1EF9D12B0705D40023521EB2
:100900000DD401F8013BFAE710F8013BCB1A921C19
:1009100003E013F8015B01F8015B521EF9D5A14217
:10092000D8D3002070BDFEE77047704770B51D4CEE
:1009300001221146204600F031F9C82000F048F8A5
:10094000194EA51400222946304600F027F94FF42D
:10095000FA6000F03DF801222946304600F01EF909
:1009600000220121204600F019F900220221204630
:1009700000F014F901222946304600F00FF96420F6
:1009800000F026F801220221204600F007F9642039
:1009900000F01EF82046BDE870400022022100F061
:1009A000FDB80000000C02400010024090F8351025
:1009B000022903D08021416501207047052180F87C
:1009C00035100068016821F00101016000207047C6
:1009D00070B5044600F0E8F80546601C02D00448F3
:1009E0000078044400F0E0F8401BA042FAD370BD48
:1009F0003C0300202DE9F84F00224FF001080325A9
:100A00004FF00F0E0B6808FA02F42340A3426ED198
:100A10004E68012E05D0022E03D0112E01D0122EC9
:100A200012D186684FEA420C05FA0CF7BE43CF6834
:100A300007FA0CF7374387604668A6430C79C4F37E
:100A40000014944034434460C668570005FA07FC1C
:100A50008C6826EA0C06BC403443C4604C68022C07
:100A600001D0122C13D1D40800EB8404A346D4F88F
:100A7000209054074FEAD46A0EFA0AF629EA0609CA
:100A80000E6906FA0AF646EA0906CBF820600668FF
:100A90000C7926EA0C0604F00304BC4034430460DD
:100AA0004C68E40060D5334C266846F480462660E6
:100AB000246822F0030604F4804400942E4C34444D
:100AC000A446D4F808489607370F0EFA07F6B44341
:100AD0002A4EB04201D100261FE0294EB04201D17A
:100AE00001261AE0274EB04202D1022615E03BE073
:100AF000254EB04201D103260FE0244EB04201D171
:100B000004260AE0224EB04201D1052605E0214E1E
:100B1000B04201D1062600E00726BE402643CCF8AD
:100B200008681D4E34684F689C43FF0300D51C4382
:100B30003460194E361D34684F689C43BF0300D59E
:100B40001C433460144E083634684F689C43FF02DF
:100B500000D51C433460104E0C3634684F689C43FB
:100B6000BF0200D51C433460521C102AFFF44AAF68
:100B7000BDE8F88F443802400030014000000240D8
:100B80000004024000080240000C02400010024035
:100B90000014024000180240003C01400AB181618B
:100BA00070470904FBE700000148806870470000B7
:100BB0003C0300200248816802781144816070473C
:100BC0003C0300200B4810B5016841F4007101603E
:100BD000016841F480610160016841F48071016045
:100BE000032000F06FF8002000F006F800F024F871
:100BF000002010BD003C024070B50D4D04464FF47E
:100C00007A712878B1FBF0F00A490968B1FBF0F07D
:100C100000F07FFE48B9102C07D200222146501E5A
:100C200000F030F800206C6070BD012070BD000045
:100C30003C030020480300200A4808B5016841F43D
:100C400080410160006800F4804000900548001F6A
:100C5000016841F080510160006800F08050009010
:100C600008BD000044380240002809DB00F01F02E4
:100C7000012191404009800000F1E020C0F80011FE
:100C800070470000F0B40E4B1B680C46C3F3022300
:100C9000C3F10705042D00D90425191D072901D228
:100CA000002300E0DB1E012606FA05F1491E214063
:100CB00099409E40761E16403143F0BC01F034BB93
:100CC0000CED00E0064900F0070208684FF6FF034C
:100CD000184040EA0220034A1043086070470000B1
:100CE0000CED00E00000FA052DE9F84F044600265F
:100CF0000078F84D3746C00708D02868A16B20F06F
:100D0000C06008432860A06B00B9012620788007E6
:100D100008D52868E16B20F0C05008432860E06BDC
:100D200000B90126207840070ED52868216B20F4F1
:100D3000401008432860206BB0F5801F01D010B12F
:100D400002E0012600E00127207800070ED5286880
:100D5000616B20F4400008432860606BB0F5800FA1
:100D600001D010B102E0012600E0012720784FF009
:100D7000000A80064FF0010B63D5D6484C38016855
:100D800041F0805101600068DFF84C9300F0805022
:100D90000090D9F8001041F48071C9F80010FFF7F5
:100DA00003FF804606E000BFFFF7FEFEA0EB080051
:100DB00002286FD8D9F80000C005F5D5DFF81483F4
:100DC000A8F11C08D8F8000010F4407024D0B4F842
:100DD000401001F4407181421ED0D8F80010BF4A83
:100DE00021F44071C2F800B0C2F800A0C8F80010A9
:100DF000D8F80000C0070FD0FFF7D6FE814607E005
:100E0000FFF7D2FEA0EB090141F288308142D0D831
:100E1000D8F800008007F3D5216CAE48C1F3012259
:100E20008438032A37D0016821F4F811C0F8001083
:100E3000D8F80010B4F84020C2F30B021143C8F8F0
:100E400000102078C00604D5A54894F85810C0F8C2
:100E5000E01120780106A34805D50168E26C21F471
:100E60004001114301602178490605D50168A26C53
:100E700021F08061114301602188C90514D5016802
:100E8000626D21F0006111430160616DB1F1006F8D
:100E900009D009E01DE10268934B22F4F8121940D1
:100EA0000A430260C4E701272188890505D5016846
:100EB000626C21F08051114301602188DFF82C928F
:100EC000490509D50168226D21F0005111430160E7
:100ED000206DB0F1005F04D01EB92068B0F5006F3E
:100EE0007ED18349C1F868A0FFF75EFE794E804647
:100EF0008C3E05E0FFF758FEA0EB0800022886D8DC
:100F000030680001F6D421687A48CA0701D0A26B84
:100F10001AB1890717D5E16BA9B901680268C1F355
:100F20000141491CD4E9013C43EA8C1321F0004CF7
:100F3000C2F3036209EB0C4141EA02610B43217DDC
:100F400043EA0171016021684A0703D5226BB2F5BB
:100F5000801F05D0090721D5616BB1F5800F1DD128
:100F600001680268C1F30141491CD4E9013C43EA2C
:100F70008C1321F0004C09EB0C4194F810C0C2F323
:100F8000027241EA0C610B4343EA02710160296875
:100F9000A26A21F01F01521E1143296021884905D0
:100FA0001AD5216DB1F1005F16D101680268C1F355
:100FB0000141491CD4E9013C43EA8C13D4F80CC02C
:100FC000C2F302724FEA5C0809EB084C4CEA41613B
:100FD0000B4343EA027101602188090511D500E045
:100FE0001FE0D4E9011241EA8211E268530809EBDB
:100FF0000342237C42EA03621143227D41EA0271EB
:1010000001603B49C1F868B0FFF7CEFD804605E0BE
:10101000FFF7CAFDA0EB0800022874D83068000171
:10102000F6D5EFB3DFF8C880C8F870A0FFF7BCFDB5
:10103000304E0746843E04E0FFF7B6FDC01B022891
:1010400061D83068C0438000F6D521682A484A0735
:1010500001D5226B1AB109071DD5616BD9B9016899
:10106000D4E90623C1F30141491C42EA831221F06D
:10107000004309EB034194F8243041EA03610A4339
:1010800002602968E26A6FF0FF0321F4F85103EB74
:101090000222114329602188C90514D5616D00E041
:1010A00038E0B1F1006F0ED10168D4E9062342EABD
:1010B0008312236AC1F303615C0809EB044343EA2A
:1010C00001610A430260C8F870B0FFF76DFD044685
:1010D0001CE018E08C38024000700040400E47428F
:1010E0000010474294380240FFFCFF0F0000FFFF52
:1010F000000047428438024088380240FFF754FD20
:10110000001B022802D90320BDE8F88F3068C043D5
:101110008000F3D40020F7E72DE9F0470E460500E4
:1011200065D0DFF81481D8F80000F7B200F00F00A6
:10113000B04207D288F80070D8F8000000F00F0025
:10114000B04254D128683D4C810712D5400703D5E1
:10115000206840F4E05020602878000703D520681C
:1011600040F4604020602068A96820F0F000084347
:1011700020602878C0072DD03049686808390128D8
:1011800012D0022813D0032811D00968890700293A
:101190002DDA216821F0030101432160FFF704FDEE
:1011A000814641F2883A0EE009688903EFE7096851
:1011B0008901ECE7FFF7F8FCA0EB0901514502D9E2
:1011C0000320BDE8F0872068696800F00C00B0EBF0
:1011D000810FEFD1D8F80010404601F00F01B14265
:1011E00007D90770006800F00F00B04201D001205D
:1011F000E7E72878400705D52068E96820F4E05043
:10120000084320602878000706D52068296920F463
:10121000604040EAC100206000F038F82168084AC8
:10122000C1F30311515CC8400649086006480068D4
:10123000FFF7E2FC0020C4E7003C0240083802400F
:10124000682B00084803002040030020044805499B
:1012500000680968044AC1F38221515CC8407047A4
:101260004803002008380240782B0008044805494C
:1012700000680968044AC1F34231515CC8407047B4
:101280004803002008380240782B0008224810B597
:10129000006810F00C02214815D04110042A11D02A
:1012A0001D4C241F082A0FD00C2A0CD12268236859
:1012B00002F03F025B0221D52068C0F38810A0FB3A
:1012C000010120E0084610BD2268236802F03F02B9
:1012D0005B0205D52068C0F38810A0FB010104E083
:1012E0002168C1F38811A1FB00010023FEF786FFEE
:1012F0002168C1F30141491C49000AE02168C1F39A
:101300008811A1FB00010023FEF778FF2168C1F3DB
:101310000271B0FBF1F010BD083802400024F40067
:101320002DE9F84F0546DFF828B30078ABF1040744
:10133000C007A7F1040451D0DBF800105846C1F3F0
:10134000810101290FD00168C1F38101022902D175
:101350003968490207D40068C0F38100032809D125
:101360003868400206D52068800337D568680028B1
:1013700072D033E06868B0F5803F10D0B0F5A02F90
:10138000206810D020F480302060206820F4802075
:1013900020606868A8B1FFF707FC06460DE02068EA
:1013A00040F48030F4E740F480202060F7E700BF8D
:1013B000FFF7FAFB801B642878D820688003F7D5F4
:1013C0000CE0FFF7F1FB064605E000BFFFF7ECFB82
:1013D000801B6428F0D820688003F7D42878DFF8D1
:1013E000749280074FF0000A46D5DBF8001058468B
:1013F00011F00C0F0FD00168C1F38101022902D155
:101400003968490207D50068C0F38100032809D173
:101410003868400206D42068800715D5E86801289E
:101420001AD111E0E868C0B10120C9F80000FFF747
:10143000BBFB064605E000BFFFF7B6FB801B02289A
:10144000BAD820688007F7D52068296920F0F8000D
:1014500040EAC10020600FE0F7E0C9F800A0FFF704
:10146000A3FB064605E000BFFFF79EFB801B02289A
:101470001CD820688007F7D42878000727D5DFF824
:10148000D0817548696908F16C0881B1012101605A
:10149000FFF78AFB064604E0FFF786FB801B022865
:1014A00004D8D8F800008007F6D510E089E0C0F82D
:1014B00000A0FFF779FB064605E000BFFFF774FBCD
:1014C000801B02287DD8D8F800008007F6D4287841
:1014D000400769D55E484FF0000838300068C0000A
:1014E0000BD45B483830016841F0805101600068DE
:1014F0004FF0010800F080500090584E3068C00551
:1015000011D4306840F480703060FFF74DFB0090DC
:1015100006E000BFFFF748FB0099401A022850D8A8
:101520003068C005F6D54A4EA868683601280FD045
:101530000528306810D020F001003060306820F0BD
:1015400004003060A868B8B1FFF72EFB00900FE0F0
:10155000306840F00100F4E740F004003060F7E745
:10156000FFF722FB0099411A41F28830814264D88A
:1015700030688007F4D50EE0FFF716FB009007E017
:10158000FFF712FB0099411A41F28830814254D88A
:1015900030688007F4D4B8F1000F05D02C483830FB
:1015A000016821F080510160A869A8B3DBF8001040
:1015B000C1F38101022948D00228C9F860A005D0F2
:1015C00000E03AE0FFF7F0FA054639E0FFF7ECFA01
:1015D000064604E0FFF7E8FA801B02282DD82068B1
:1015E0008001F7D4F5E907010843E9681C4A490876
:1015F00002EB0141AA6841EA82110843297C40EAD2
:101600000160297D40EA017038600120C9F860005E
:10161000FFF7CAFA054606E015E000BFFFF7C4FA77
:10162000401B022809D820688001F7D50BE000BFD5
:10163000FFF7BAFA401B022802D90320BDE8F88F51
:1016400020688001F4D40020F8E70120F6E70000CC
:101650000838024000004742800E474200700040B8
:101660000000FFFF70B5040002D0607F10B106E0FB
:10167000012070BD00202077204600F049F80220AC
:1016800060772168CA20486221685320486220465A
:1016900000F04AFCFF25042618BB206881681B4A1D
:1016A000114081602168886862681043D4E904238E
:1016B0001A43104388602168E06808612068016966
:1016C000228941EA024101612068C16821F080015C
:1016D000C16020688068800607D4204600F0FEF8CC
:1016E00018B1206845626677C2E72068016C21F472
:1016F000802101642068016CA269114301642068A3
:10170000456201206077002070BD0000BFFF8FFFA1
:1017100000680349884202D10249012008607047ED
:10172000002800403C0E47422DE9F0470446007F68
:101730000B4601281FD04FF0010984F81C900220AD
:101740006077DAB19878D97840EA01455878197805
:10175000000240EA413005432168CA2048622168FE
:1017600053204862204600F0DFFB0026FF274FF0A1
:10177000040860BB1AE00220BDE8F0875878C10673
:1017800003D500F0EF000A305870D87800F0C1FBA4
:101790000204587800F0BDFB42EA0022987800F07D
:1017A000B8FB0243187842EA4035D5E70F480540B8
:1017B000206845602068C16821F08001C160206810
:1017C000806880060AD4204600F088F830B120688E
:1017D000476284F81D8026770120CDE720684762A4
:1017E00084F81D9026770020C6E700003FFFFF0029
:1017F0002DE9F0470446007F0D46012827D04FF021
:10180000010A84F81CA00220607720680026806806
:101810004FEA4060F2B1002800DBEE70A87829782A
:1018200040EA01476878E978000240EA014007434E
:101830002168CA204862216853204862204600F08F
:1018400073FB4FF0FF084FF00409A0BB16E0022025
:10185000BDE8F087002800DBEE70287800F059FB27
:101860000204687800F055FB42EA0022A87800F0F4
:1018700050FB0243E87842EA0047D9E716480740A0
:10188000206807602068816821F480218160D5E9A3
:101890000301084321688A68104388602068C16892
:1018A00021F08001C1602068806880060BD420464A
:1018B00000F014F838B12168C1F8248084F81D9034
:1018C00026770120C4E72168C1F8248084F81DA090
:1018D00026770020BCE700007F7F7F0070B50446BC
:1018E0000068C16821F0A001C160FFF75DF90546FD
:1018F0004FF47A7607E000BFFFF756F9401BB0427D
:1019000001D9032070BD2068C0688006F4D500208E
:1019100070BD10B5401EB0F1807F01D3012010BD15
:101920004FF0E02460610F21601700F0FDFC002003
:10193000A06107202061002010BD704770B50268CB
:1019400004461068D168536910F00F0F52D003F0AD
:10195000010501F490762E435FD0C20705D0CA0579
:1019600003D5E26B42F00102E263420705D5DA07D4
:1019700003D0E26B42F00202E263820705D5DA0788
:1019800003D0E26B42F00402E263020707D501F0E4
:1019900020022A4303D0E26B42F00802E263E26BCA
:1019A000002A33D0800604D5880602D5204600F0F0
:1019B0005FFB20684069E16BC0F38010090700D429
:1019C00028B3204600F046FB2068416949061AD535
:1019D000416921F040014161606BA0B11B49016583
:1019E000606BFEF7E3FF002810D0606B016DBDE86F
:1019F00070400847830610D58B060ED52046BDE8FB
:101A0000704000F035BB2046FFF797FF70BD2046C1
:101A1000FFF793FF0020E06370BD030606D50B06B9
:101A200004D52046BDE8704000F002BC4006F3D566
:101A30004806F1D5D168204621F04001D16020212F
:101A400084F8391000F033F970BD0000452000081B
:101A500070B5040004D094F83900002510B106E0F8
:101A6000012070BD84F83850204600F023F824206F
:101A700084F839002068C16821F40051C160204613
:101A800000F042FB2068016921F490410161206867
:101A9000416921F02A0141612068C16841F4005187
:101AA000C160E563202084F8390084F83A00002002
:101AB00070BD000010B586B0044614216846FEF7DC
:101AC000E7FB18492068884229D11748016841F48A
:101AD00080110160006800F48010059012481038F1
:101AE000016841F0100101600068694600F01000D3
:101AF00005904FF4C07000900220019001200290E8
:101B000003200390082004900848FEF773FF00228A
:101B100011463520FFF7B6F83520FFF7A5F806B0D7
:101B200010BD00000050004040380240001002404C
:101B300090F83A30202B22D1F9B1F2B190F8383038
:101B4000012B1CD081628285C2850021C1632222C3
:101B500080F83A2080F838100168CA6842F4807230
:101B6000CA6001684A6942F001024A610068C168BE
:101B700041F02001C1600020704701207047022021
:101B800070470000144910B5884223D1012213493F
:101B90001148FFF7CDFF114C601CB4F88E2121785D
:101BA0001154B4F88E01401C80B2A4F88E010628AE
:101BB00008D30BA1601CFEF776FB18B90AA1601CC4
:101BC000FEF771FBB4F88E01B0F5AF7F02D30020B1
:101BD000A4F88E0110BD0000240800204C03002052
:101BE0004F4B0D0A00000000434F4E4E4543540D2D
:101BF0000A0000002DE9F843044690F839001F461A
:101C000016460D46202850D1B5B1AEB194F8380033
:101C100001284AD0012084F838004FF00008C4F8A9
:101C20003C80212084F83900FEF7BEFFA68481465F
:101C3000E68484F8388026E00120BDE8F883E08C53
:101C4000401EE084A0684B46B0F5805F4FF0000274
:101C50004FF080012046009703D000F01AFBE8B94E
:101C60000DE000F016FBC8B928882168C0F3080011
:101C70004860206908B16D1C05E0AD1C03E02168D7
:101C800015F8010B4860E08C0028D8D14B460022A3
:101C900040212046009700F0FCFA08B10320CCE771
:101CA000202084F839000020C7E70220C5E77047EC
:101CB000FEE700002DE9F04F87B014216846FEF7DB
:101CC000E7FA6F480024016841F0100101600168E3
:101CD00001F010010591016841F004010160016803
:101CE00001F004010591016841F0200101600168E3
:101CF00001F020010591016841F080010160016857
:101D000001F080010591016841F001010160016865
:101D100001F001010591016841F0020101600168D3
:101D200001F002010591016841F040010160016884
:101D300001F040010591016841F00801016000686F
:101D4000DFF8409100F0080005900022102148467D
:101D5000FEF724FFDFF830A14FF450570022394638
:101D60005046FEF71BFFDFF824B10022032158463E
:101D7000FEF714FF4FF40048002241464448FEF7A6
:101D80000DFF4CF67F200325CDE90005694602943E
:101D90005046FEF72FFE43F6EF70CDE90005694689
:101DA00002944846FEF726FE4FF6FF70CDE9000587
:101DB000694602943748FEF71DFE49F6FF70CDE9EB
:101DC0000005694602943448FEF714FE1020009086
:101DD0000126CDE90164694648460394FEF70AFEF0
:101DE0004FF6F770CDE90005DFF8B0906946029430
:101DF0004846FEF7FFFD47F2DF70CDE90005694672
:101E000002942348FEF7F6FD0097CDE90164694688
:101E100050460394FEF7EEFD4FF6FC70CDE9000549
:101E2000694602945846FEF7E5FD20208DE85100F2
:101E300069461748FEF7DEFD0095CDE90164694665
:101E400058460394FEF7D6FDF002CDE9000469463A
:101E50000F480294FEF7CEFDCDF80080CDE9016475
:101E600069460B480394FEF7C5FD0820CDE9000440
:101E7000694648460294FEF7BDFD07B0BDE8F08F05
:101E8000303802400008024000100240000C0240BE
:101E9000001802400014024000000240000402400A
:101EA0000B4810B50949016000217F22C0E90112E9
:101EB000FF22C0E9032141618161FFF7D3FB0028C4
:101EC00003D0BDE81040FEF730BD10BD0028004033
:101ED000040800200C4810B50A4901604FF4E131B4
:101EE0004160002181600C22C160C0E9041281615F
:101EF000C161FFF7ADFD002803D0BDE81040FEF73B
:101F000014BD10BD0050004024080020FEE77047BB
:101F10007047002102E00A38C0B2491C0A28FAD2F0
:101F2000090740EA1160704770B504460068C1684F
:101F3000490614D44FF0FF31C160FEF735FE054667
:101F40004FF47A7607E000BFFEF72EFE401BB0424A
:101F500001D9032070BD2068C0684006F4D5002078
:101F600070BD704710B5034800F092FCBDE810400A
:101F7000FEF720BE9005002030B5ABB0342117A885
:101F8000FEF786F9142124A8FEF782F95C21684641
:101F9000FEF77EF91F480025016841F0805101607D
:101FA000006800F0805029901B48016841F44041CE
:101FB00001600068022400F4404029900520179039
:101FC0004FF480301890012019908005CDE91D4014
:101FD00004201F90A820CDE920040720CDE9220489
:101FE00017A8FFF79DF924A90F2081E831004FF4CD
:101FF000A0502790E0022890052124A8FFF78CF834
:1020000020200090C00010906846FEF76DFE2BB0B7
:1020100030BD0000403802400070004005480168B3
:1020200041F47001016003494FF00060803908609D
:102030007047000088ED00E00148FFF77FBC00001A
:102040002408002010B5806B0021C185C184FFF7F2
:1020500074FC10BD0168CA6822F49072CA600168FD
:102060004A6922F001024A61202180F83A10704743
:1020700010B590F83A10222901D0022010BD8168D5
:10208000B1F5805F11D00169002901681FD049684E
:1020900001F07F03816A4A1C82620B70C18D491E68
:1020A0000904090CC18518D02BE00269816A002A55
:1020B0000268526805D0D2B20A80816A491C8162E6
:1020C000ECE7C2F308020A80816A891CF7E74A68D4
:1020D000816A4B1C83620A70E0E70168CA6822F0DB
:1020E0002002CA600168CA6822F48072CA6001686E
:1020F0004A6922F001024A61202180F83A10FFF774
:1021000041FD002010BD00002DE9F04104460068AB
:102110000169E26821F44051114301612169A0681D
:10212000E26908436169114308432168CA6849F2BA
:102130000C639A430243CA6020684169A26921F492
:10214000407111434161E069192764253226B0F5D9
:10215000004F354A354920684FF0000806D08842C4
:1021600001D0904236D1FFF781F835E0884201D0A6
:10217000904202D1FFF77AF801E0FFF767F8616853
:102180004A18A0FB070148EB0803FEF737F80146A1
:10219000B0FBF5F00201B1FBF5F06FF01803584306
:1021A00001EB800006EBC000B0FBF5F000F0F8009A
:1021B00002EB4002B1FBF5F0584301EB800006EB67
:1021C000C000B0FBF5F000F0070021681044886003
:1021D000BDE8F081FFF73AF861688B0F8A00A0FB39
:1021E0000701FEF70BF80146B0FBF5F06FF018029F
:1021F000504301EB800006EB0010B0FBF5F000F05F
:10220000F002B1FBF5F002EB0012B1FBF5F06FF05C
:102210001803584301EB800006EB0010B0FBF5F00B
:1022200000F00F00D1E70000001401400010014051
:1022300090F83910212901D0022070478168B1F54A
:10224000805F016A0BD04A1C026202680978516003
:10225000C18C491E0904090CC1840ED017E00988FD
:102260000268C1F30801516001690029016A02D0C6
:10227000491C0162ECE7891CFBE70168CA6822F08F
:102280008002CA600068C16841F04001C16000205E
:1022900070472DE9F041984617460E460446069DC4
:1022A0001DE0681C1BD02DB1FEF77EFCA0EB0800E2
:1022B000A84214D92068C16821F4D071C160206897
:1022C000416921F001014161202084F8390084F83E
:1022D0003A00002084F838000320BDE8F08120682F
:1022E000006836EA000004D00020B842D9D00020AF
:1022F000F3E70120F9E7FEE70FB41CB50246002022
:1023000007AC00290BD0491ECDE90021054B6A46D8
:102310002146069800F028F8009A002111701CBC94
:102320005DF814FB212500080907090E002804DBCD
:1023300000F1E02080F80014704700F00F0000F179
:10234000E02080F8141D704702E008C8121F08C181
:10235000002AFAD170477047002001E001C1121F26
:10236000002AFBD1704700002DE9FF4F8BB09A4641
:102370000F460546002606E025280BD052460D994B
:1023800090476D1C761C28780028F5D10FB0304698
:10239000BDE8F08F0024A0460122604900E004431C
:1023A00015F8013F203B02FA03F00842F7D12878E4
:1023B0002E2817D115F8010F44F004042A280ED056
:1023C0006FF02F022878A0F1300109290AD808EB14
:1023D000880102EB410100EB01086D1CF2E757F8A0
:1023E000048B6D1C287869283ED006DC0028CDD0EF
:1023F00063280BD0642804D136E0732810D07528E8
:102400004BD052460D999047761C85E017F8040B87
:102410008DF8000000208DF80100E946012003E05E
:1024200057F8049B4FF0FF3061074FF0000401D4D0
:102430000AE0641C44450DDA8442FADB19F8041002
:102440000029F6D106E0641C8442FCDB19F8041074
:102450000029F8D1264404E019F8010B52460D99E1
:102460009047641EF8D257E001CF4FF00A0B0028C6
:1024700002DA40422D2102E0210504D52B218DF8FE
:102480002410012103E0E10705D02021F7E70DF139
:10249000200908910CE00021F9E701CF4FF00A0B69
:1024A000F9E75946FDF7DAFF01F1300209F8012D8D
:1024B0000028F6D1ADEB090000F1200B600701D434
:1024C0004FF00108D84502DDA8EB0B0000E000202A
:1024D0008046002406E009A85246005D0D99904709
:1024E000641C761C08988442F5DB04E030205246D8
:1024F0000D999047761CB8F10001A8F10108F5DCB0
:1025000005E019F8010B52460D999047761CBBF176
:102510000001ABF1010BF4DC6D1C34E7092801006C
:102520004A68002A06D00A68531C0B60107048687D
:10253000401E4860704710B504464FF4AF71401C10
:10254000FDF7A6FE0020A4F88E0110BD10B588B0DE
:1025500004460D2307A21E216846FFF7CDFE6846FC
:10256000FDF7B3FE81B222696846904708B00120AA
:1025700010BD000041542B5149434C4F53453D324F
:102580002563000030B5DDE9035428B1C0E900122D
:10259000837225B1012103E04FF0FF3030BD0021EF
:1025A0004172C472002030BD30B595B00D4604466E
:1025B000142110A8FDF76CFE00200F909CB3284654
:1025C000FDF783FE78B319A12846FDF76CFE50B3E2
:1025D00004AC06AA07AB211DCDE90032CDE90214F7
:1025E00008AB09AA13A10830FDF776FE07988DF80D
:1025F0003E0009988DF83F0008988DF83D00069838
:102600008DF8400005988DF8410004988DF842003F
:1026100010AC0FA900220C48FFF786F800222146D3
:102620000948FFF7E5F815B0002030BD2B514C5498
:10263000533A000025642F25642F25642C25643A25
:1026400025643A2564000000040800202DE9F041CB
:102650000546007B0F460026B8B1002411E0006853
:10266000394650F824000068FDF71DFE40B1286887
:102670000021006850F82400C068067A017204E066
:10268000641C2868817AA142E9DC3046BDE8F0810B
:1026900010B50C46C0B10846FDF717FEA0B10BA15E
:1026A0002046FDF700FE04460F210948FDF7F0FD26
:1026B00054B1641C0F2221460548FDF7D0FD0F22BE
:1026C00021460448FDF7CBFD014810BD0A0000007B
:1026D00044050020AB0400201CB500240094042312
:1026E0002246174917480194FFF74CFF154A144931
:1026F00000940F23103102F10C000194FFF742FF08
:10270000104A0F4900940123103902F11800019476
:10271000FFF738FF0B4A0A49009401230C3902F1F4
:1027200024000194FFF72EFF064A05490094022376
:10273000083902F130000194FFF724FF1CBD0000AE
:10274000AC000020540500202DE9F041040014D015
:10275000A07A0025012620B33248FFF7ECFE25734E
:1027600020682179827A8A421CD9006850F82100B9
:10277000816931B1204688470FE04FF0FF30BDE856
:10278000F0810068FDF7A1FD81B220682279006820
:1027900050F82200226900689047A572E680206800
:1027A000057215E01F48FFF7C6FEA5722571E5808A
:1027B000206806722068C07A012804D1A16900202F
:1027C000884700E02060206840680028FAD126731E
:1027D000154F387808B37868B0F5FA6F20DD2068B7
:1027E0002179006850F821000369B3B10D49002236
:1027F000491C204698473D700A48FFF79CFE7D60C3
:102800002068817A2079401C814207D12673206894
:1028100000E0206040680028FBD101E02071A67232
:102820000020ACE74C0300200000002010B504009D
:1028300015D0002020711548FFF77DFE20686179D2
:10284000006850F82100C068E0B12060006821797C
:1028500050F82100816929B1204688470EE04FF0E9
:10286000FF3010BD0068FDF730FD81B2206822798D
:10287000006850F822002269006890470120E0803B
:10288000002010BD6FF0020010BD00004C030020BE
:102890002DE9F04104000FD0E08801273E4D4FF0B4
:1028A0000008002859D020893C4E401C80B220816D
:1028B00096F8901161B903E04FF0FF30BDE8F08168
:1028C00021682279096851F82210898A814244D806
:1028D00020682179006850F821004168701CFDF7DC
:1028E000E2FC48B920682179006850F8210081682D
:1028F000701CFDF7D8FCD0B1B6F88E01B8B185F8E0
:10290000018020682179006850F82100016A09B12E
:102910002046884720680168207951F8201009690D
:1029200009B12F7013E0401C2071A7720FE02068DE
:102930002179006850F82100C16909B12046884713
:10294000A7726079022802D06878401C6870A4F8E9
:102950000680A4F8088086F8908168780A2814D345
:1029600085F80180A4F8068084F8048084F8058046
:1029700084F80A80206800E0206040680028FBD1CD
:10298000074807700748FFF751FF287810B16868BB
:10299000401C6860002091E7000000204C030020EC
:1029A000380300209005002070B50E46050003D0C6
:1029B000287BC0B1002410E04FF0FF3070BD0068EC
:1029C000314650F824000068FDF76DFC20B16C71B1
:1029D0002846FFF72BFF04E0641C2868817AA14297
:1029E000EDDC002070BD6FF0010070BDFEF7EAF86D
:1029F000FFF7C2FAFFF75EF9FFF76CFAFFF750FA3C
:102A000001221C491C48FFF793F8012210211B48A2
:102A1000FEF7C4F81A4C012291022046FEF7BEF8D8
:102A2000012251032046FEF7B9F8FDF77FFFFFF7BB
:102A300053FE14480021144A01710260134A0261D6
:102A40008172C18001814171FFF7F0FE0D48FFF7EF
:102A50007BFE0FA10B48FFF7F9FD0FA128B909482C
:102A6000FFF7F4FD0028F1D00CA10648FFF79CFF0A
:102A7000ECE700004C03002024080020000802407E
:102A8000001002409005002054050020512B000842
:102A9000494E4954000000005055540053454E44DF
:102AA0000000000010B592B004460D2141F28830BC
:102AB000CDE9000107A30BA23C2102A8FFF71CFCF3
:102AC00002A8FDF702FC81B2226902A8904712B069
:102AD000012010BD3136352E32322E38372E3136A8
:102AE0003600000041542B51494F50454E3D312C8A
:102AF000322C22554450222C222573222C25692C5D
:102B0000302C32256300000010B5044607A309A24B
:102B10004FF416710848FFF7EFFB0748FDF7D5FBA8
:102B200081B2226904489047012010BD7465737416
:102B30000000000025730000AC05002010B50269FC
:102B4000032102A09047012010BD00002B2B2B0079
:102B50000A4610B501464FF4FA630248FFF74AF8F7
:102B6000012010BD2408002000000000000000002B
:102B70000102030406070809000000000102030423
:102B8000DDDDDDDDDCBBBBDDDDDDDDDDDDDDDDDDBA
:102B900098888888888888887777777777888888FA
:102BA0008555555666666666666666666668888892
:102BB0008333333222222222222222222228888D8B
:102BC000494E4954000000000000000050555400D8
:102BD00053454E4400000000434C4F534500000055
:102BE0004F4B0D0A0000000041540D0A0000000088
:102BF00041542B43474143543D312C310D0A0000D1
:102C000041542B43474143543D302C310D0A0000C1
:102C100041542B4350494E3F0D0A00005245414458
:102C2000590D0A00302C310D0A000000302C320DF5
:102C30000A00000041542B43475245473F0D0A000C
:102C400041542B435245473F0D0A000041542B513C
:102C5000494E44493D310D0A0000000041542B43C8
:102C60004744434F4E543D312C224950222C226D73
:102C70006762222C22222C0D0A00000041542B43B3
:102C80004750414444523D310D0A000041542B51FC
:102C9000494143543D310D0A0000000041542B4787
:102CA000534E0D0A0000000041542B514C54530D5B
:102CB0000A0000004F4B000041542B51494F504532
:102CC0004E0D0A00414C524541445920434F4E4E4F
:102CD0004543540D0A000000434F4E4E45435400F7
:102CE0002B2B2B0041542B514953454E44000000DF
:102CF000102D0008000000204C030000D008000840
:102D0000042E00084C0300201C3500005823000846
:102D1000C113C02B1B08C804411360050214209A7C
:102D2000CC240A156C249AD0240A1578249AD82425
:102D30000A15842413A8021B20CC041AF0041314CF
:102D40000323200C1B2030041A54041A78041AF8A8
:102D5000041364011B20AC041A88041AD00429143B
:102D60001A40081AF4041A1C041A183C29141A3CB4
:102D7000081A60045A84101AE87C5AE08081E3B88B
:102D80000B0A11F024F3A00F0A202C241A10241A85
:102D90001C04C1E3D0071A34201A24049A2C28E317
:102DA000AC0D0A114024E9B40A114C90E9240A211F
:102DB0005C240A117C24E3E8030A118C24E39411B7
:102DC000DA9C24139126EA08481AA8249AB4D40B52
:102DD00010A925241AB8201AD804DAC4FC8BA52A15
:102DE000102AE46C992069B49A09803924D9B42353
:102DF000DC05DA3D24A99069241A4D98C13201827C
:042E0000101324F493
:04000005080001C529
:00000001FF
